:020000040800F2
:10000000B8120020050100080D0100080F010008CA
:10001000110100081301000815010008000000008C
:1000200000000000000000000000000017010008B0
:1000300019010008000000001B0100081D01000854
:100040001F0100081F0100081F010008C51D00084E
:100050001F0100081F010008F911000859120008CB
:100060001F0100081F010008551300081F010008A8
:100070001F0100081F0100081F0100081F010008E0
:100080001F0100081F0100081F0100081F010008D0
:100090001F0100081F0100081F010008B513000818
:1000A0001F0100081F0100081F0100081F010008B0
:1000B0005D24000885240008CD2400081F010008E5
:1000C0001F0100081F0100081F0100081F01000890
:1000D0001F0100080D2600081F0100086526000802
:1000E0001F0100081F0100081F010008DFF810D0E1
:1000F00000F030FB0048004741390008AFF30080B2
:10010000B81200200648804706480047FEE7FEE791
:10011000FEE7FEE7FEE7FEE7FEE7FEE7FEE7FEE7B7
:10012000FD230008ED000008D2B201E000F8012B29
:10013000491EFBD270470022F6E710B513460A4667
:1001400004461946FFF7F0FF204610BD30B50546BE
:100150002A460B4612F8010B13F8014B08B1A042D6
:10016000F8D01CB1002802D06D1CF1E7284630BD44
:1001700010B5044604E00B7800F8013B03B1491CBC
:10018000521EF8D2204610BD421C10F8011B002957
:10019000FBD1801A70472DE9FE4F81EA030404F079
:1001A000004421F0004100944FF0000B23F0004385
:1001B00050EA01045ED052EA03045BD0C3F30A5450
:1001C000C1F30A552C44A4F2F3340194A0FB025469
:1001D000C1F3130141F48011C3F3130343F48013FB
:1001E00001FB024400FB034E840A970A44EA81544F
:1001F00047EA8357A4FB076802958D0A05FB07852C
:100200004FEA932C04FB0C542705029D4FEA065835
:1002100047EA1637B5EB08056EEB070C870E920E12
:1002200047EA811742EA8312A7FB0201B6EB0B01F2
:1002300064EB00042B0D43EA0C335E1844EB1C50B6
:10024000DA465146E7FB0201C5F313044FEA0B33CC
:1002500043EA14534FEA0432019C43EA0603A4F133
:100260000C040294009CCDE900B400F04EF903B0F8
:10027000BDE8F08F00200146F9E72DE9F04D81EA55
:10028000030404F0004B21F0004514464FF0000A2F
:1002900023F0004150EA050220D054EA01021DD0AB
:1002A000C5F30A570246C5F31303C1F31300C1F3A4
:1002B0000A5640F4801543F48013A7EB0608101B80
:1002C000D64608F2FD3873EB050002D308F10108A9
:1002D00001E092185B41B8F1000F03DA00200146FB
:1002E000BDE8F08D00204FF48011064684460EE0F4
:1002F000171B73EB050705D3121B63EB05030643BE
:100300004CEA010C49084FEA300092185B4150EA70
:100310000107EDD152EA030012D082EA040083EA19
:100320000501084305D0101BAB4106D20122002372
:1003300006E000224FF0004302E06FF0010253108C
:100340001AEB06004CEB085110EB0A0041EB0B01D5
:10035000BDE8F04D00F0CAB80EB540F2334102914D
:100360000021CDE900110A460B4600F0CEF803B09B
:1003700000BD00F0004230F000400AD0C10D01F590
:100380006071C0F3160042EA0151C20840071143F0
:10039000704700200146704701F0004330B421F05F
:1003A000004150EA010206D00A0DA2F56072C1F3C5
:1003B0001301002A02DC30BC00207047440F44EADD
:1003C000C104C100E01830BC00EBC25000F057B8C7
:1003D00030B50B46014600202022012409E021FA15
:1003E00002F59D4205D303FA02F5491B04FA02F512
:1003F0002844151EA2F10102F1DC30BD2DE9F05FA9
:100400000546002092469B46884606468146402483
:100410001BE0284641464746224600F020F8534656
:100420005A46C01A914110D311461846224600F090
:10043000A3F92D1A67EB01084F462246012000213F
:1004400000F09AF917EB00094E41201EA4F10104B7
:10045000DFDC484631462A464346BDE8F09F202A65
:1004600004DB203A21FA02F00021704721FA02F35E
:10047000D040C2F12002914008431946704700293C
:10048000A8BF7047401C490008BF20F0010070471A
:1004900010B4B0FA80FC00FA0CF050EA010404BF7A
:1004A00010BC704749B1CCF1200421FA04F411FAD0
:1004B0000CF118BF012121430843A3EB0C01CB1D14
:1004C0004FEA00614FEA102042BF002010BC704785
:1004D00000EBC35010440029A4BF10BC7047401C5F
:1004E000490008BF20F0010010BC704710B5141E71
:1004F00073F1000408DA401C41F1000192185B41DD
:100500001A4301D120F0010010BD2DE9F04D9246B3
:100510009B4611B1B1FA81F202E0B0FA80F22032CA
:10052000904600F029F904460F4640EA0A0041EAE5
:100530000B0153465A46084313D0114653EA0100B3
:1005400019D0C8F140025046FFF789FF05460E4614
:1005500050465946424600F00FF9084305D00120A5
:1005600004E020463946BDE8F08D0020054346EA08
:10057000E0762C4337430A986305E40AA0EB0800B1
:100580000022FD0A44EA47540A3002D50020014601
:10059000E9E7010510196941DDE9084500196941DC
:1005A000BDE8F04DA2E72DE9FE4F804681EA030049
:1005B000C00F0C46009021F0004123F00045B8EB3D
:1005C0000200A94105D24046214690461C460B46F2
:1005D000024623F00040104347D0270DC7F30A001E
:1005E000C3F30A510290401A019040286BDAC3F31A
:1005F000130040F4801B0098924620B10023D2EBF8
:10060000030A63EB0B0B01985946C0F140025046B8
:1006100000F0B2F806460D4650465946019A00F0E1
:10062000BAF810EB08006141002487EA115284EA0D
:10063000E7731A4340D0009A62B3019A012A4FEA45
:10064000075215DC001B61EB02014FF0004202EA89
:100650000752CDE90042001C41F5801132462B467D
:10066000FFF753FF03B0BDE8F08F40462146F9E79E
:10067000001B61EB0201001C41F5801300185B4177
:100680002018A2F5001747EB030140EAD570B61910
:100690006D4111E06D084FEA360645EAC0754FEA34
:1006A0000752001B61EB0201001C41F58011490853
:1006B0004FEA30000019514132462B4603B0BDE8E5
:1006C000F04FFFF713BF0098012240000023D0EB4A
:1006D000020263EBE073009821464FEAE074B8EB46
:1006E000000061EB0401E9E783F000435BE781F080
:1006F000004158E7C1F30A52C1F3130140F2FF333E
:1007000041F480119A4202DA00200146704740F21B
:1007100033439A42A2F2334202DC5242FFF79FBEB9
:1007200000F02AB830B5041E71F1000404DB4FF06C
:100730000044404264EB0101141E73F1000405DB28
:100740001C464FF00043524263EB0403994208BF3A
:10075000904230BD064C074D06E0E06840F00103D2
:1007600094E8070098471034AC42F6D3FFF7C2FC78
:10077000F047000810480008202A04DB203A00FA5D
:1007800002F1002070479140C2F1200320FA03F3E8
:10079000194390407047202A06DBCB17203A41FAD4
:1007A00002F043EAE07306E041FA02F3D040C2F1FE
:1007B0002002914008431946704770B58C1810F814
:1007C000015B15F0070301D110F8013B2A1106D196
:1007D00010F8012B03E010F8016B01F8016B5B1EB0
:1007E000F9D12B0705D40023521E0DD401F8013B8B
:1007F000FAE710F8013BCB1A921C03E013F8015BF7
:1008000001F8015B521EF9D5A142D8D3002070BD7A
:100810000848806940F0040006498861064800687D
:1008200020F07060044908600846006840F040709D
:100830000860704700100240000801402DE9F047B1
:100840000C4615464FF4A06202F007062E4F396899
:100850004FF6FF0739402D4F0F4347EA06212A4F35
:10086000396000BF26462F4602F00701C1F1070993
:10087000B9F1040F02D94FF0040901E0C1F10709F1
:10088000C84601F10409B9F1070F02D24FF000097F
:1008900001E0A1F10309CC464FF0010909FA08F97A
:1008A000A9F1010909EA060909FA0CF94FF0010A50
:1008B0000AFA0CFAAAF1010A0AEA070A49EA0A0343
:1008C00000BF02461946002A0ADA0E074FEA166CE4
:1008D0000D4E0C3602F00F073F1F06F807C003E06D
:1008E0000E07370E0A4EB75400BF00BF00F01F02BC
:1008F000012191404209920002F1E022C2F8001168
:1009000000BFBDE8F08700000CED00E00000FA0534
:1009100000E400E02DE9F04700F080F8CC2000F082
:10092000B9F8442000F0B6F800BF00F04DF80028F8
:10093000FBD000F073F8CC2000F0ACF8BE2000F043
:10094000A9F800F041F8824600F03EF804464AEA71
:100950000429072C07DD6FEA09001FFA80F909F165
:1009600001001FFA80F94846FFF7F6FC074600220F
:10097000034BFFF710FC0546FFF70EFDBDE8F087BF
:100980000000B03F10B50E48806940F008000C49E7
:1009900088610C48006860F070400A4908600846A9
:1009A000006840F0E040086006480830006840F405
:1009B000004004490831086000F030F810BD000024
:1009C00000100240040C014070B5002500241DE019
:1009D000002010490860032002F0CBFB01200E49E3
:1009E000C1F8BC010A2002F0C4FB0A488038006844
:1009F00020B10120A0402843C5B202E00120A04060
:100A000085433C2002F0B5FB601CC4B2082CDFDB40
:100A1000284670BDBC8121420080214210B50024CF
:100A200000201A4908604FF4F07002F0A2FB012088
:100A30001749C1F8BC0109E0012002F09AFB601CD3
:100A400084B212488038006800B901E0502CF3DB12
:100A500000BF502C01D1012010BD00240AE001206C
:100A600002F087FB601C84B20848803800680128C7
:100A700000D102E0B4F58C7FF1DB00BFB4F58C7FD0
:100A800001D10220E8E70020E6E70000BC81214216
:100A90000080214270B5044600251BE000200F496C
:100AA0000860032002F065FB04F0010018B101208A
:100AB0000A49086002E00020084908603C2002F072
:100AC00058FB012005490860032002F052FB641026
:100AD000681CC5B2082DE1DB70BD0000BC8121425D
:100AE0002DE9F0470546894616460024002746E0D2
:100AF000002029490860294908702946284801F042
:100B000085FE4FF0000835E0002415E0012002F0DA
:100B100023FB601C84B2322094FBF0F100FB1140F7
:100B200038B92048006808B9012000E000201D49BC
:100B30000860A64200D103E0184800780028E5D0FC
:100B400000BF1648007800B910E000201349087073
:100B500049461548FFF7FAFA38B1012011490860F3
:100B600000200D490860BDE8F08700BF08F10100D2
:100B700000F0FF08B8F1030FC6DB781CC7B2052FE1
:100B8000B6DB0120074908600020044908700249CB
:100B900008600120E7E70000100000200C000020A2
:100BA000004800409C812142B8060020F0B595B075
:100BB00004460D462846FFF7DCFB2246CDE900013E
:100BC0000EA108A801F05AFE08A8FFF7DDFA0646B4
:100BD00032460DA103A801F051FEC8220FA103A8BF
:100BE000FFF77EFF40B9C8220DA108A8FFF778FFE4
:100BF00010B9002015B0F0BD0120FBE72A253035E3
:100C0000642C252E32660A0041542B43495053452B
:100C10004E4445583D302C25640D0A003E0000002E
:100C200053454E44204F4B00F0B58DB006460C4660
:100C300015462B46224614A1684601F01FFE4FF4CC
:100C40007A7218A16846FFF74BFF10B101200DB072
:100C5000F0BD3046FFF798FA07463A4612A16846BB
:100C600001F00CFEC82214A16846FFF739FF08B155
:100C70000220ECE7C82211A13046FFF731FF08B18E
:100C80000320E4E70020E2E741542B43495053544A
:100C90004152543D22544350222C222573222C25AC
:100CA000640D0A004F4B000041542B4349505345FB
:100CB0004E443D25640D0A003E00000053454E445D
:100CC000204F4B002DE9F041A4B006460F4600240A
:100CD0000025A04644A001F0C1FD49A14B4801F008
:100CE00095FD4FF47A7002F037FA4FF47A7002F003
:100CF00033FA47A001F0B2FD47A001F0AFFD642236
:100D00004CA14DA0FFF7ECFE18B1012024B0BDE8C6
:100D1000F0813FA001F0A2FD4BA001F09FFD3B46FA
:100D200032464EA10BA801F0A9FD4FF47A7241A101
:100D30000BA8FFF7D5FE08B10220E7E734A001F0C9
:100D40008DFD4DA001F08AFD64223AA150A0FFF76D
:100D5000C7FE08B10320D9E750A15248FFF7F6F9C2
:100D6000C41D51A14F48FFF7F1F900F10805C4B1C6
:100D7000BDB14FA12046FFF7E9F98046A8EB040278
:100D8000214606A8FFF7F4F94FF0000848A12846CD
:100D9000FFF7DCF98046A8EB0502294601A8FFF71A
:100DA000E7F91BA001F05AFD42A001F057FD6422B3
:100DB00020A146A0FFF794FE08B10420A6E714A0E6
:100DC00001F04CFD314645A001F048FD394647A0F1
:100DD00001F044FD06A949A001F040FD01A94CA085
:100DE00001F03CFD002091E7302EC9E8B1B8D6D81B
:100DF000C6F42E2E2E2E2E2E2E2E2E2E000000006D
:100E000041542B5253540D0A00000000004800408A
:100E10006F6B2E0A00000000312EC5E4D6C3CEAAA7
:100E2000537461696F6EC4A3CABD2E2E2E2E2E2E52
:100E3000000000004F4B000041542B43574D4F44DE
:100E4000453D310D0A000000322EC1ACBDD3B5BD09
:100E500041502E2E2E2E2E2E2E2E000041542B438E
:100E6000574A41505F4445463D222573222C222596
:100E700073220D0A00000000332EB2E9D1AFB1BEDB
:100E8000BBFA4950B5D8D6B72E2E2E2E0000000042
:100E900041542B43494653520D0A000053544149D3
:100EA00050000000B80600205354414D414300005B
:100EB00022000000342EBFAAC6F4B5A5C1B4BDD32C
:100EC0002E2E2E2E2E2E2E2E0000000041542B43AF
:100ED00049504D55583D300D0A00000057494649CC
:100EE000C3FBB3C63A25730A0000000057494649C0
:100EF000C3DCC2EB3A25730A00000000BFCDBBA7DC
:100F0000B6CB4950B5D8D6B73A25730A00000000D1
:100F1000BFCDBBA7B6CB4D4143B5D8D6B73A2573A5
:100F20000A0000002DE9F04198B006460F46002463
:100F30000025A04649A001F091FC4EA1504801F0C7
:100F400065FC4FF47A7002F007F94FF47A7002F002
:100F500003F94CA001F082FC4CA001F07FFC64225C
:100F600050A151A0FFF7BCFD18B1012018B0BDE899
:100F7000F08144A001F072FC4FA001F06FFC3B46F1
:100F8000324653A10BA801F079FC3EA001F066FCAB
:100F900057A001F063FC642242A15BA0FFF7A0FD13
:100FA00008B10320E2E737A001F058FC59A15B48E3
:100FB000FFF7CCF8841D5AA15848FFF7C7F8C51DA4
:100FC000C4B1BDB158A12046FFF7C0F88046A8EBD8
:100FD0000402214606A8FFF7CBF84FF0000852A103
:100FE0002846FFF7B3F88046A8EB0502294601A87A
:100FF000FFF7BEF84DA001F031FC642229A151A0F9
:10100000FFF76EFD08B10420B0E71EA001F026FC3A
:1010100050A001F023FC642222A154A0FFF760FD40
:1010200008B10520A2E756A001F018FC314655A0F2
:1010300001F014FC394657A001F010FC06A959A094
:1010400001F00CFC01A95CA001F008FC5FA001F01C
:1010500005FC64A001F002FC002087E7302EC9E8FF
:10106000B1B8D6D8C6F42E2E2E2E2E2E2E2E2E2EE3
:101070000000000041542B5253540D0A00000000A0
:10108000004800406F6B2E0A00000000312EC5E4BE
:10109000D6C3CEAA4150C4A3CABD2E2E2E2E2E2EAC
:1010A000000000004F4B000041542B43574D4F446C
:1010B000453D320D0A000000322EC5E4D6C3415032
:1010C000D0C5CFA22E2E2E2E2E2E2E2E00000000AA
:1010D00041542B43575341505F4445463D222573AD
:1010E000222C222573222C352C340D0A00000000FE
:1010F000332EB2E9D1AFB1BEBBFA4950B5D8D6B79D
:101100002E2E2E2E0000000041542B4349465352F0
:101110000D0A00004150495000000000B8060020B0
:1011200041504D414300000022000000342EBFAA70
:10113000C6F4B6E0C1B4BDD32E2E2E2E2E2E2E2EEA
:101140000000000041542B4349504D55583D310D8E
:101150000A000000352EBFAAC6F4B7FECEF1C6F7CE
:101160002E2E2E2E2E2E2E2E0000000041542B430C
:1011700049505345525645523D310D0A000000007A
:101180006F6B0A0057494649C3FBB3C63A25730A39
:101190000000000057494649C3DCC2EB3A25730AF8
:1011A00000000000B7FECEF1B6CB4950B5D8D6B797
:1011B0003A25730A00000000B7FECEF1B6CB4D41D0
:1011C00043B5D8D6B73A25730A000000B7FECEF172
:1011D000B6CBB6CBBFDABAC53A3333335BC8B1CA84
:1011E000A15D0A00B5C8B4FDC9E8B1B8C1ACBDD3B2
:1011F0002E2E2E2E2E2E0A0010B50E48006800F05E
:101200000100B0B10A2001F0A7FF0B48006800F010
:10121000010020B109A10C4801F0F8FA03E00BA18C
:10122000094801F0F3FA0348006840F00200014960
:10123000086010BD1404014008080140C9CFC9FD71
:10124000D1D8B4A5B7A20A0000380140CFC2BDB5BD
:10125000D1D8B4A5B7A20A002DE9F0474FF0000A93
:101260002648006800F00200002845D00A2001F05E
:1012700073FF2348006800F0020068B921A12748E5
:1012800001F0C4FA00204FF0804108800846008831
:1012900040F00100088029E021A1204801F0B6FAC1
:1012A0004FF08040008820F001004FF0804108801E
:1012B00021480088C0EB0040898C00EB010A5046B1
:1012C000FFF74AF8064600221C4BFEF7D6FF0446FD
:1012D00000221A4BFEF7D1FF804642460B4651468C
:1012E00017A001F0BBFA00201349088003480068EA
:1012F00040F0020001490860BDE8F0871404014095
:1013000008080140CFC2BDB5D1D8B4A5B7A22CBC46
:10131000C6CAB1BFAACABC0A00000000003801401A
:10132000C9CFC9FDD1D8B4A5B7A22CBCC6CAB1BD1E
:10133000E1CAF80A000000001400002000408F40BD
:10134000BAC4CAB120256420757320252E326620C8
:1013500073200A0010B50E48006800F01000B0B10C
:101360000A2001F0F9FE0B48006800F0100020B9D7
:1013700009A10C4801F04AFA03E00BA1094801F069
:1013800045FA0348006840F002000149086010BDBA
:101390001404014008080140CFC2BDB5D1D8B4A59E
:1013A000B7A20A0000380140C9CFC9FDD1D8B4A501
:1013B000B7A20A0010B50E48006800F02000B0B1D6
:1013C0000A2001F0C9FE0B48006800F0200020B997
:1013D00009A10C4801F01AFA03E00BA1094801F039
:1013E00015FA0348006840F002000149086010BD8A
:1013F0001404014008080140CFC2BDB5D1D8B4A53E
:10140000B7A20A0000380140C9CFC9FDD1D8B4A5A0
:10141000B7A20A0010B504462FA12046FEF796FE9B
:1014200018B101202E49086055E02EA12046FEF794
:101430008DFE18B100202A4908604CE02CA12046FE
:10144000FEF784FE18B100202B49086043E02BA171
:101450002046FEF77BFE18B10120274908603AE0DC
:1014600029A12046FEF772FE20B100202249091D65
:10147000086030E026A12046FEF768FE20B101207A
:101480001D49091D086026E024A12046FEF75EFEE6
:1014900020B100201849083108601CE021A1204635
:1014A000FEF754FE20B1012013490831086012E014
:1014B0001FA12046FEF74AFE20B100200E490C3144
:1014C000086008E01CA12046FEF740FE18B101208C
:1014D00009490C31086010BD424545505F4F4E0030
:1014E00098012142424545505F4F464600000000AA
:1014F0004C4544315F4F4E00988121424C45443168
:101500005F4F4646000000004C4544325F4F4E009E
:101510004C4544325F4F4646000000004C45443382
:101520005F4F4E004C4544335F4F4646000000007D
:101530004C4544345F4F4E004C4544345F4F464663
:10154000000000001448806940F0040012498861DE
:101550001248006800F0FF20104908600846006843
:1015600040F0881008600D480C30006820F0010041
:101570000A490C3108600846006840F00200086023
:101580000846006840F0100008600846006840F017
:101590002000086070470000001002400008014071
:1015A00010B53548007800284AD13448006800F06A
:1015B000010070B93148006800F0020048B12F48BE
:1015C000006800F0100020B12C48006800F02000F6
:1015D000A8BB142001F0C0FD2848006800F00100FD
:1015E00070B92648006800F0020048B1234800683E
:1015F00000F0100020B12148006800F02000C8BBB6
:1016000001201D4908701D48006800F0010008B164
:10161000012010BD1948006800F0020008B902203E
:10162000F7E71648006800F0100008B90320F0E75B
:101630001248006800F02000E0B90420E9E7FFE765
:101640000D480078B0B10D48006800F0010088B97D
:101650000A48006800F0020060B10848006800F025
:10166000100038B10548006800F0200010B10020DB
:10167000014908700020CCE7000000200808014064
:101680001248806940F008001049886110480068DD
:1016900020F07F400E4908600846006840F04C503A
:1016A0000860081D006820F0FF00091D086008465A
:1016B000006840F03300086005480C30006840F4D2
:1016C000707003490C310860704700000010024040
:1016D000000C014070B500240FE00021204600F00E
:1016E000E5FA002505E00121002000F0F5FA681C6C
:1016F000C5B2802DF7DB601CC4B2082CEDDB70BDD9
:101700002DE9FC4706460F4690469946DDE90BA5B4
:101710000A9CBAF1010F09D0BAF1020F0FD0BAF149
:10172000030F15D0BAF1040F24D11AE04B464246FC
:1017300039463046CDE9004500F038F81AE04B460E
:10174000424639463046CDE9004500F0F0F811E058
:101750004B46424639463046CDE9004500F07DF81B
:1017600008E04B46424639463046CDE9004500F098
:1017700036F900BF00BFBDE8FC8700002DE9FC4141
:1017800006460F4614461D46DDF82080064800EB4D
:101790004510234622463946CDE90008304600F080
:1017A0005CF8BDE8FC8100006D3C00082DE9F05FAD
:1017B00080460D4691461C46AA4601E0601CC4B214
:1017C000E11704EB5171C910A4EBC1010029F5D157
:1017D000002638E00A98875D4FF0000B25E00B9853
:1017E00070B907F0010028B101222946404600F0F7
:1017F000FBF813E000222946404600F0F5F80DE022
:1018000007F0010028B100222946404600F0ECF81C
:1018100004E001222946404600F0E6F87F10681CEB
:10182000C5B20BF1010000F0FF0BBBF1080FD6DBD6
:10183000A5EB0A00A04204D1554608F1010000F0D2
:10184000FF08701CC6B209FB04F0C11700EB517110
:10185000B6EBE10FBEDBBDE8F09F2DE9F84F074680
:101860000D4690461C46AA46009701E0601CC4B293
:10187000E11704EB5171C910A4EBC1010029F5D1A6
:1018800089464AE00A9810F801BB0A9000262AE02F
:101890000B9890B90BF0010038B129466A1CD5B2FB
:1018A0000122384600F0A0F819E029466A1CD5B29A
:1018B0000022384600F098F811E00BF0010038B132
:1018C00029466A1CD5B20022384600F08DF806E0A1
:1018D00029466A1CD5B20122384600F085F84FEA45
:1018E0006B0B701CC6B2082ED2DBF11706EB5171E0
:1018F000C910A6EBC10111B9781CC7B255460098B2
:10190000381A404505D1009F0AF1080000F0FF0A8F
:10191000554609F1010000F0FF0908FB04F0C1176A
:1019200000EB5171B9EBE10FACDBBDE8F88F2DE9AD
:10193000F05F0546894616461C46AA4601E0601C33
:10194000C4B2E11704EB5171C910A4EBC101002925
:10195000F5D100273AE00A9810F807804FF0000B05
:1019600026E00B9870B908F0010028B10022494622
:10197000284600F039F813E001224946284600F0D5
:1019800033F80DE008F0010028B10122494628464D
:1019900000F02AF804E000224946284600F024F826
:1019A0004FEA6808681CC5B20BF1010000F0FF0B9C
:1019B000BBF1080FD5DBA5EB0A00B04204D15546B8
:1019C00009F1010000F0FF09781CC7B2E11704EB30
:1019D0005171C9107143B942BDDCBDE8F09F30B50B
:1019E000DDE9034530BD0000F0B503461546802B08
:1019F00028DA402926DA0C46CF1701EB5777C7F3D0
:101A0000C7001A46CF1701EB5777FF10A1EBC707A6
:101A1000FEB25DB10C4C04EBC014A45C0127B740CE
:101A20003C43094F07EBC017BC540AE0064C04EBDB
:101A3000C014A45C0127B740BC43034F07EBC01799
:101A4000BC5400BFF0BD0000B80A00202DE9FC5FC7
:101A500005460E4617469846DDE90C49AB4620E0A0
:101A60007F2D03DD06EB0800C6B25D4620782028F6
:101A700008DB20787E2805DC14F8010B203800F004
:101A8000FF0A01E04FF01F0A084800EB0A10434626
:101A90003A463146CDE900092846FFF7DEFEE8194F
:101AA000C5B220780028DBD1BDE8FC9F3D3D000891
:101AB00070B5002412E00021204600F0F7F8002560
:101AC00008E0084901EBC411485D012100F004F968
:101AD000681CC5B2802DF4DB601CC4B2082CEADBA4
:101AE00070BD0000B80A002000200CE0002106E0D4
:101AF0000022064B03EBC0135A544A1CD1B2802972
:101B0000F6DB411CC8B20828F0DB7047B80A002099
:101B100010B55F48806940F00C005D4988615D4800
:101B2000006820F070405B4908600846006840F09B
:101B3000405008605848006820F0F000564908609E
:101B40000846006840F030000860081D00685349EE
:101B500008405149091D086008460068504908437B
:101B60004D49091D08604B480C30006840F080006A
:101B700048490C31086048480C30006840F00200C9
:101B800045490C3108600846006840F4E0400860B0
:101B9000002044490860642001F0DEFA0120424937
:101BA000C1F8B001642001F0D7FA0021AE2000F0A6
:101BB00093F80021084600F08FF80021102000F073
:101BC0008BF80021402000F087F80021812000F0F0
:101BD00083F80021CF2000F07FF80021A12000F041
:101BE0007BF80021C82000F077F80021A62000F043
:101BF00073F80021A82000F06FF800213F2000F0CA
:101C00006BF80021D32000F067F80021084600F0AF
:101C100063F80021D52000F05FF80021802000F05B
:101C20005BF80021D92000F057F80021F12000F0E6
:101C300053F80021DA2000F04FF80021122000F0C4
:101C40004BF80021DB2000F047F80021402000F095
:101C500043F80021202000F03FF80021022000F08E
:101C60003BF800218D2000F037F80021142000F00F
:101C700033F80021A42000F02FF80021A62000F066
:101C80002BF80021AF2000F027F8FFF723FD10BD4F
:101C90000010024000080140000C0140FFFF00F06E
:101CA00000003303B08121420080214270B5054617
:101CB0000C4605F00701B031C8B2002100F00CF865
:101CC00004F00F00002100F007F8102101EB1410C0
:101CD000002100F001F870BD10B50022144B1A600D
:101CE000144AC2F884110022134B1A6000BF14E09A
:101CF0000023114C236000F080031BB10123241F3B
:101D0000236003E000230C4C241F236001230A4CB2
:101D100023604306180E531CDAB2082AE8DB0022BF
:101D2000054B1A600122054BC3F89C2110BD000031
:101D30009C01214200802142B881214200002142C1
:101D40002DE9F04305460B461646012B01D0022B28
:101D500004D1681E85B203F10C00C3B2642095FB68
:101D6000F0F101EBC10000EB0110A5EB800203F1E3
:101D7000010C4FF01A080CFB08FC4FF00A089CFB02
:101D8000F8FC4FEAE27802EB987802EBA8084FEAF9
:101D9000E17901EB997908EBA9084FF0020909FBF9
:101DA0001188C444B444ACF1010400E0E41D002CEB
:101DB000FCDB072094FBF0F700FB1744E0B2BDE822
:101DC000F083000010B50B48008800F0010048B116
:101DD000084918310988074A1432128841EA02403A
:101DE00000F014F90348008820F001000149088040
:101DF00010BD00000428004010B54E48C06940F0F6
:101E000080504C49C8610846C06940F00060C86114
:101E10004948006840F48070474908604548006AB6
:101E200040F48030434908620846006A20F480305C
:101E300008620846006A40F001000862002400BF02
:101E4000012001F089F9601CC4B2FE2C00D105E02C
:101E50003848006A00F002000028F1D000BFFE2CD4
:101E600006D03448006A40F48070324908620AE0C3
:101E70003048006A20F001002E4908620846006AD6
:101E800040F4407008622B48006A40F40040294941
:101E9000086200BF2948008800F020000028F9D01F
:101EA0002648008840F010002449088023481C3050
:101EB000008822491C310880081D008840F01E005F
:101EC000091D08801D48143000881C491431088001
:101ED000081D0088091D08801848001D0088174942
:101EE000091D0880FE2C04D047F6FF70091D0880EC
:101EF00004E04FF223401149083108800F48008860
:101F000020F010000D49088000BF0C48008800F048
:101F100020000028F9D00948001F008840F0010087
:101F20000649091F0880012211460320FEF786FC9E
:101F300010BD000000100240007000400428004066
:101F40003EB5044620782A285DD12046FEF71CF9CC
:101F50000F2858D1607830384FF47A714843A1780F
:101F6000303901EBC10202EB011100EB8101E07895
:101F7000303800EB800001EB400120793038084414
:101F800021490880A07930386179303901EB81012D
:101F900000EB41001C498870207A3038E1793039F3
:101FA00001EB810100EB41001749C870A07A30387D
:101FB000617A303901EB810100EB4100124908716F
:101FC000207B3038E17A303901EB810100EB4100B0
:101FD0000D494871A07B3038617B303901EB8101BC
:101FE00000EB4100084988710846C0798979064AA2
:101FF0005279054DCDE9002102902B79EA78A97834
:10200000288800F08FF83EBD1800002010B5044667
:102010003E483F490A6802604968416015E03B4913
:10202000088800F001FC28B13A48844201D3241A00
:1020300006E00BE03848844201D3241A00E005E0B2
:1020400032480088401C31490880E8E700BF31E091
:102050002E4880783149085C00EB4000C000C0EB9E
:1020600000108000C0EB0010B4EB800F0DD32748A8
:102070008078085C00EB4000C000C0EB00108000DE
:10208000C0EB0010A4EB800400E014E01F4880784F
:102090002249085C022808D11C49088800F0C4FBCA
:1020A00018B11F48844200D3241A18488078401C75
:1020B00016498870CCE700BF06E01948241A134877
:1020C000C078401C1149C87015488442F5D206E01A
:1020D000A4F561640D480079401C0C490871B4F501
:1020E000616FF5D205E03C3C08484079401C074947
:1020F00048713C2CF7D205498C710B46DA789978F7
:102100001888FFF71DFE0149C87110BD1800002096
:10211000D83A00080085E2018033E101E03A000886
:10212000805101002DE9FE4F05460E4617469846A0
:10213000DDE90DABDDF8309043463A46314628469E
:102140008DE8000E00F03AF804461948C06940F0E6
:1021500000601749C8610846C06940F08050C861F6
:102160001448006840F480701249086000BF1248AB
:10217000008800F020000028F9D00F48008840F0C7
:1021800010000D490880200C0B4914310880091DEE
:102190000C800948008820F010000749088000BF23
:1021A0000548008800F020000028F9D0BDE8FE8F27
:1021B0000010024000700040042800402DE9F05F4C
:1021C00006460F4690469946DDE90AAB00242348AF
:1021D00005880AE0284600F027FB10B12048044497
:1021E00001E020480444681C85B2B542F2DB1B487C
:1021F000857815E01C48405D00EB4000C000C0EB56
:1022000000108000C0EB001004EB8004022D05D10B
:10221000304600F009FB08B114480444681C85B23C
:10222000BD42E7DBA8F1010000EB4000C000C0EBBD
:1022300000108000C0EB001004EB8004C9EB091013
:102240008000C0EB001004EB8004CAEB0A1004EB22
:1022500080045C442046BDE8F09F0000D83A0008A6
:102260000085E2018033E101E03A0008805101007D
:1022700010B5FFF795F9012806D002280FD00328E2
:1022800018D004282CD120E01F48007800EB400033
:102290001E4901EB800040781B49087020E01A4875
:1022A000007800EB4000194901EB8000C078164926
:1022B000087015E01448007800EB4000134901EB6A
:1022C00080008078104908700AE00F48007800EB21
:1022D00040000E4901EB800000790B49087000BFF7
:1022E00000BF0948007800EB4000084901EB80007E
:1022F000806807490860FFF7F7FB054800688047DA
:10230000FFF7D6FB10BD0000980000202000002041
:102310009C00002010B500F001F810BD0CB50020A5
:10232000019000903348006840F4803031490860E3
:1023300000BF3048006800F4003000900198401C55
:102340000190009818B90198B0F5A06FF1D1294813
:10235000006800F4003010B10120009001E000207E
:1023600000900098012843D12348006840F01000F5
:10237000214908600846006820F00300086008460C
:10238000006840F0020008601A4840681949486037
:102390000846406848600846406840F480604860ED
:1023A0000846406820F47C1048600846406840F4C5
:1023B000E81048600846006840F08070086000BF80
:1023C0000C48006800F000700028F9D00948406807
:1023D00020F00300074948600846406840F00200CA
:1023E000486000BF0348406800F00C000828F9D19D
:1023F0000CBD0000001002400020024010B5134840
:10240000006840F001001149086008464068104922
:1024100008400E494860084600680E4908400B49CC
:1024200008600846006820F480200860084640687C
:1024300020F4FE0048604FF41F008860FFF76AFF39
:102440004FF000600449086010BD00000010024019
:102450000000FFF8FFFFF6FE08ED00E04FF08040BF
:10246000008A00F0010060B14FF08040008820F049
:1024700001004FF0804108800846008A20F00100EA
:10248000088270470D48008800F00100A8B10B4891
:102490001038008820F00100084910390880012018
:1024A0000749087000200749074A12688854034802
:1024B000008820F0010001490880704710040040A6
:1024C00004000020B8060020100000200D480088FD
:1024D00000F00100A8B10B481038008820F001007E
:1024E0000849103908800120074908700020074971
:1024F000074A126888540348008820F00100014907
:1025000008807047100800400C000020B80600202A
:102510001000002070B504460D461646B4F1804FF9
:1025200015D13748C06940F001003549C8610846F7
:10253000006940F0010008610846006920F00100D0
:102540000861032211461C20FEF778F932E02D487D
:10255000844215D12A48C06940F002002849C86168
:102560000846006940F0020008610846006920F052
:1025700002000861032211461D20FEF75FF919E0F1
:102580002148844215D11E48C06940F004001C490E
:10259000C8610846006940F0040008610846006907
:1025A00020F004000861032211461E20FEF746F9C0
:1025B00000E070BD208820F002002080208840F0DC
:1025C000040020802088208020882080208820808F
:1025D00020882080208820F0800020802088208093
:1025E000208820800020A084701EA085681E208581
:1025F0000120A081208820F00100208000BFD8E7C2
:1026000000100240000400400008004010B51148CE
:10261000008800F02000D8B10E49091D08880E4935
:102620000968B1F5806F12D200210C4A11800B4964
:102630002439098841F00101084A243A11800649E9
:102640000B680968491C044C21600549C85400BF47
:1026500010BD0000003801400800002024040040A4
:10266000B802002010B51148008800F02000D8B151
:102670000E49091D08880E490968B1F5806F12D20C
:1026800000210C4A11800B492439098841F00101CD
:10269000084A243A118006490B680968491C044C11
:1026A00021600549C85400BF10BD0000004800402B
:1026B0001000002024080040B80600202DE9F04753
:1026C00007460D4616460024A04629463846FDF723
:1026D0003DFD81462846FDF757FD4844C41C54B1D2
:1026E00006A12046FDF732FD8046A8EB04022146F4
:1026F0003046FDF73DFDBDE8F087000022000000F8
:1027000070B504460D46394884422AD1384880695C
:1027100040F00400364988613648006820F47F6044
:10272000344908600846006840F40B60086030488F
:10273000806940F480402E4988610846C06840F4B2
:102740008040C8600846C06820F48040C8602A48BD
:10275000B0FBF5F02081012211462520FEF76EF82E
:102760002FE0264884422CD02548844229D1204895
:10277000C06940F480201E49C8612248006820F4E6
:102780007F40204908600846006840F40B4008601C
:102790001748C06940F480201549C861084600699F
:1027A00040F4802008610846006920F48020086118
:1027B0001548B0FBF5F02081032201212720FEF708
:1027C0003DF8A08940F40050A081A08940F00C00A1
:1027D000A081A08920F48050A081208A20F440505C
:1027E0002082A08940F02000A08170BD0038014007
:1027F000001002400408014000A24A0400440040C6
:1028000000480040040C01400051250208E011F886
:10281000012B828000BF028802F08002002AFAD0D9
:102820000A78002AF3D170470146CA1701EB927269
:102830009210A1EB82022AB9642291FBF2F302FB0F
:10284000131232B94FF4C87291FBF2F302FB131268
:102850000AB9012070470020FCE700000FB4054BC7
:1028600010B503A9044A029800F0EEF810BC5DF818
:1028700014FB000045340008B40200200FB4084BDC
:1028800010B504A902AA039800F0DEF8044602A9D4
:10289000002000F05CFC204610BC5DF814FB00003A
:1028A0004F31000802E008C8121F08C1002AFAD1FF
:1028B00070477047002001E001C1121F002AFBD1C0
:1028C000704700002DE9FF5F82B00021DDE9043090
:1028D000020DDDF840B0034318D044F61050A2F2C8
:1028E000FF3242431514119801281FD0A5EB0B00AD
:1028F000401C5FEA000A4FF000064E4FDFF83891A7
:10290000B046504615D5CAF1000413E011980124D1
:102910004AA3012801D16FEA0B010298119AC0E97C
:102920000031C0E9024206B0BDE8F09FCBF10000E3
:10293000DFE704460021404A491842EB0450CDE944
:10294000001012E0E00707D032463B4640464946B9
:10295000FDF721FC8046894632463B461046194623
:10296000FDF719FC06460F466410002CEAD1DDE99C
:102970000401DDE90023BAF1000F06DAFDF70BFCD4
:1029800042464B46FDF707FC05E0FDF776FC424664
:102990004B46FDF772FC04460E460022284BFDF71D
:1029A000C1FE03D84FF0FF30014607E00022254B5F
:1029B00020463146FDF7F7FDFDF79CFE102409E0A7
:1029C000002C0ADB0A220023FDF718FD039B30329E
:1029D0001A55641E50EA0102F2D1641C039AC4F134
:1029E00011031444119A012A03D0012208430DD186
:1029F0000AE0084304D000204FF0110B119072E759
:102A0000A3EB0B056D1E0DE05B4504DD4FF00002EE
:102A100005F1010504E003DA4FF00002A5F101051C
:102A2000002AECD002981199C0E90231C0E90045B2
:102A300079E70000000014400000F03F3000000083
:102A40000000F0430000E03F2DE9FF4F95B09A46AB
:102A5000884606460025EEE1252877D10024274642
:102A6000F94A0121039400E0044316F8013F203B9A
:102A700001FA03F01042F7D130782A2811D06FF014
:102A80002F033078A0F13002092A16D8039A44F0B7
:102A9000020402EB820203EB42021044761C039014
:102AA000EFE758F8042B0392002A03DA504244F46B
:102AB0000054039044F00204761C30782E2816D17E
:102AC00016F8010F44F004042A280DD06FF02F02ED
:102AD0003078A0F13003092B09D807EB870302EB0C
:102AE0004303C718761CF3E758F8047B761C30784C
:102AF0006C280FD006DC4C2817D068280DD06A2827
:102B000014D104E0742810D07A280FD10DE044F4D9
:102B100000140AE044F4801401E044F44014727894
:102B2000824202D104F58014761C761C3078662827
:102B30000BD013DC582877D009DC002875D0452845
:102B4000F6D04628F4D047281AD193E118E063283C
:102B500035D0642879D0652812D18BE1702873D0E4
:102B600008DC6728F1D069286FD06E280DD06F2857
:102B700006D1ACE073282CD0752874D0782853D0B7
:102B80005246179990476D1C54E1C4F30250022835
:102B900009D003280DD0D8F8001004280DD00D60FE
:102BA00008F1040846E1D8F80010EA17C1E900521C
:102BB000F6E7D8F800100D80F2E70D70F0E718F88E
:102BC000041B8DF8001000208DF80100EB46012059
:102BD00003E058F804BB4FF0FF3061074FF00001ED
:102BE00002D40DE009F101018946B9420FDA8145AD
:102BF000F8DB1BF809100029F4D108E009F1010104
:102C000089468142FADB1BF809100029F6D10398A6
:102C10005346A0EB090721463846179A00F080FA80
:102C2000284400EB090507E044E008E10DE01BF84B
:102C3000010B524617999047B9F10109F7D2534653
:102C400021463846179AF2E039E00A21C4F30252CD
:102C50004FF0000B0091022A06D058F8040BC11760
:102C6000032A09D00AE023E008F1070020F0070258
:102C7000F2E80201904605E000B2C117042A01D132
:102C800040B2C117002906DA0A460021404261EB32
:102C900002012D2202E0220504D52B228DF804200A
:102CA000012203E0E20701D02022F7E7914657E036
:102CB0000A2100E010214FF0000B00910BE01021E1
:102CC0004FF0000B44F004040827009103E00820B3
:102CD0004FF0000B0090C4F30252022A05D058F8BE
:102CE000040B0021032A08D008E008F1070020F0B7
:102CF0000702F2E80201904603E080B2042A00D104
:102D0000C0B24FF0000922072AD53278702A07D0C6
:102D1000DDF800C08CF0100C5CEA0B0C05D00EE066
:102D200040228DF80420012208E050EA010306D079
:102D300030238DF804308DF8052002229146009B47
:102D400083F0080353EA0B030AD150EA010201D1D0
:102D5000620705D530228DF804204FF001097F1E4F
:102D60003278582A04D039A20C920CAA02920BE0B5
:102D70003BA2F9E75B46009AFDF740FB0C9B9B5C8E
:102D8000029A521E0292137050EA0102F2D1029886
:102D900004A9081A00F1200B600702D524F480343E
:102DA00000E001275F4502DDA7EB0B0000E00020FB
:102DB00000EB0B01009003984944401A0390E00394
:102DC00006D453462146179A039800F0A9F9054402
:102DD000002706E001A85246C05D179990476D1C78
:102DE0007F1C4F45F6DBE0030CD553462146179A6E
:102DF000039800F095F9054404E0302052461799F5
:102E000090476D1C0099481E00900029F5DC08E0F1
:102E10000298029952460078491C029117999047EE
:102E20006D1CBBF10001ABF1010BF1DC5BE100F0CB
:102E300065F90544761C307800287FF40DAE19B092
:102E40002846BDE8F08F00000928010030313233F8
:102E500034353637383961626364656600000000D6
:102E600030313233343536373839414243444546C0
:102E700000000000600700D4062708F1070020F0DA
:102E80000700F0E80223804603F0004C5FEA0C00E4
:102E900001D097A009E0200501D596A005E0E00744
:102EA00001D095A001E0AFF24C001390307823F0F0
:102EB000004365280CD006DC452809D046281DD0E3
:102EC00047287FD13BE0662818D067287AD136E0C2
:102ED0000021112F01DB112000E0781CCDE9000159
:102EE00004A90CA8FFF7EEFCDDE90D010C9A4FF0E8
:102EF000000B07F10109109200914EE04FF00040E5
:102F00000097CDE9011004A90CA8FFF7DBFCDDE96F
:102F10000D020C9B0F994FF0000B914610930092FD
:102F200011B9791C00EB0109B7EB090003D4C0F11A
:102F3000FF3B07F10109A9EB0700019042E0012FD7
:102F400000DA01270021112F01DD112000E03846B1
:102F5000CDE9000104A90CA8FFF7B4FCDDE90D01DF
:102F60000C9A00914FF0000BB946109221070FD434
:102F7000009A4A4503DA914601E0A9F10109B9F145
:102F8000010F05DD109AA9F10101515C3029F4D03F
:102F9000B84202DA10F1040F03DA0121CDE9011081
:102FA00010E0002803DC8344A9EB000102E0411C8F
:102FB000494500DD8946A0EB0B00401C01904FF015
:102FC00000400290200705D40198484502DB4FF0ED
:102FD000FF30019000208DF84B0002980DF14B0757
:102FE000B0F1004F25D002200C902B200D900298BC
:102FF00000280CDA404202902D200D9007E00A21B3
:103000000298FDF7E5F93031029007F8011D0C999F
:10301000481E0C900029F2DC02980028EFD1791E9E
:103020000D980870307800F0200040F0450007F857
:10303000020D11A8C01BC01D02901398007800B1AA
:10304000012000EB0901019801EBE07102980144B5
:103050000398401A401E0390E00306D453462146CD
:10306000179A039800F05CF805441398007818B19B
:103070005246179990476D1CE00323D553462146CD
:10308000179A039800F04CF805441BE0BBF1000FC1
:1030900007DB0098584504DD1098179910F80B00CD
:1030A00001E0179930205246904701980BF1010B2F
:1030B000401E05F10105019004D12E2052461799BA
:1030C00090476D1CB9F10001A9F10109DEDC05E0B2
:1030D00017F8010B5246179990476D1C0299481E2C
:1030E00002900029F4DC53462146179A03989EE685
:1030F0002D0000002B000000200000002DE9F04111
:10310000044600251E461746880404D405E03946C7
:103110002020B0476D1C641EF9D52846BDE8F0811B
:103120002DE9F041044600251E469046C80301D50E
:10313000302700E02027880404D505E041463846C2
:10314000B0476D1C641EF9D52846BDE8F0810A68B9
:10315000531C0B601070704700B5034603E04FF43A
:103160007A7000F006F8181EA3F101018BB2F6D1B7
:1031700000BD00EBC001C9004FF0E0225161002109
:1031800091610521116100BF4FF0E021096901F44F
:1031900080310029F8D04FF0E021096921F00101C8
:1031A0004FF0E022116170471CB5012026A11023C9
:1031B0000822CDE9001000210846FEF747FC2A4806
:1031C000006800F00100A0B1012028A1102308220E
:1031D000CDE9001020210020FEF738FC28A12BA00B
:1031E000FDF7A0FE04461CB121462AA0FFF736FBDE
:1031F00000BF1D48006800F0100000281AD101200F
:1032000029A110230822CDE9001020210020FEF77B
:103210001DFC2A4945F62530FDF7C8FC044624B9B3
:10322000214627A0FFF71AFB03E021462BA0FFF75A
:1032300015FB00BF00202FA110230822CDE90010AC
:103240003021FEF703FC1CBD5072657373205B5583
:10325000705D20746F20737461727420536F667494
:103260004150204D6F6465000808014020536F668F
:10327000744150204D6F6465204F4E2100000000C6
:10328000313233343536373800000000544350367D
:10329000363600004572726F72206E756D203E3EAC
:1032A00025643C3C20210A00416C726561647920F0
:1032B00073656E642044617461210000D7A3BA4134
:1032C000726574203D2025642C53656E64207375EF
:1032D00063636573732E2E2E0A00000072657420DE
:1032E0003D2025642C53656E64206661696C212144
:1032F000210A00005B4C6566745D20746F20726566
:103300007475726E000000001CB5012024A110230A
:103310000822CDE9001000210846FEF797FB284857
:10332000006800F00100B0B1012026A1102308229E
:10333000CDE9001020210020FEF788FB2648016817
:1033400026480068FDF7BEFC04461CB1214624A0B7
:10335000FFF784FA00BF1A48006800F01000A0B917
:103360002448828A01461630FDF75EFC044624B9E3
:10337000214621A0FFF772FA03E0214625A0FFF7BE
:103380006DFA01202949087000BF002028A11023F0
:103390000822CDE900103021FEF758FB1CBD0000CB
:1033A0005072657373205B55705D20746F20737469
:1033B00061727420535441204D6F64650000000019
:1033C0000808014053746174696F6E204D6F646525
:1033D000204F4E2100000000A4000020A00000208B
:1033E0004572726F72206E756D203E3E25643C3CC6
:1033F00020210A00AA000020726574203D20256467
:103400002C53656E6420737563636573732E2E2E63
:103410000A000000726574203D2025642C53656EFF
:1034200064206661696C2121210A0000A900002046
:103430005B4C6566745D20746F2072657475726E86
:1034400000000000054B188000BF044A121F1288BC
:1034500002F08002002AF8D07047000004380140D2
:103460000EB500201AA110230822CDE90010014654
:10347000FEF7ECFA002003211A4A2023CDE90021AF
:1034800002901A461021FEF73BF900200321164A4C
:103490002023CDE9002102901A4610212F20FEF7AB
:1034A0002FF900200321114A2023CDE900210290A9
:1034B0001A4610216020FEF723F900200CA11023EA
:1034C0000822CDE900103021FEF7C0FA0EBD000041
:1034D000202020204D61696E204D656E75202020D2
:1034E000000000005547000855460008D546000872
:1034F00020507265737320616E79206B65792E2E72
:10350000000000001CB5002012A110230822CDE904
:1035100000100146FEF79AFA012012A1102308229A
:10352000CDE9001019460020FEF790FA002010A106
:1035300010230822CDE900102021FEF787FA002091
:103540000FA110230822CDE900103021FEF77EFAEA
:103550001CBD0000202053656C656374204D656EB2
:10356000752020005B66756E315D2052544300006B
:103570005B66756E325D2044533138423230000054
:103580005B66756E335D20574946490000B5B7B09C
:1035900000202DA110230822CDE900100146FEF7DE
:1035A00055FA2E48C07800902C48837802882CA1C8
:1035B0001EA8FFF763F929488079009027484379CE
:1035C00002792BA105A8FFF759F92448C2792CA14B
:1035D00003A8FFF753F900202BA110230822CDE9FF
:1035E00000101946FEF732FA01201EA91023082206
:1035F000CDE9001020210020FEF728FA012005A9BE
:1036000010230822CDE9001030210020FEF71EFA19
:10361000012000231022302100904820FEF7AEF850
:10362000012003461022302100905820FEF7A6F812
:10363000012003A910230822CDE9001030216820C1
:10364000FEF704FA37B000BD2A2A2A3C5254435FE1
:103650005F434C4B3E2A2A2A00000000180000203D
:10366000253034642F253032642F25303264000039
:10367000253032643A253032643A25303264000015
:103680005B25645D000000003E3E4265696A696E2C
:10369000672074696D653C3C000000001CB500208B
:1036A00016A110230822CDE900100146FEF7CEF93D
:1036B000002016A110230822CDE900101946FEF7BC
:1036C000C5F9012014A110230822CDE90010202102
:1036D0000020FEF7BBF9002013A110230822CDE93A
:1036E00000103021FEF7B2F94FF08040008820F042
:1036F00001004FF0804108801CBD00002020536570
:103700006C656374204D656E752020005B66756E78
:10371000315D2052544300005B66756E325D20447B
:1037200053313842323000005B66756E335D20578E
:103730004946490070B588B0002019A1102308221D
:10374000CDE900100146FEF781F9002019A11023F0
:103750000822CDE900101946FEF778F9002017A1DC
:1037600010230822CDE900102021FEF76FF9FDF7A4
:10377000D1F806463046FCF7FCFD044622460B46CF
:1037800012A103A8FFF77AF8012003A91023082249
:10379000CDE9001030210020FEF758F908B070BDC7
:1037A0002A2A2A2A2A3C54656D703E2A2A2A2A2A65
:1037B0000000000043757272656E740074656D7070
:1037C000657261747572653A000000003E3E3E3ECF
:1037D0003E3E252E31663C3C3C3C3C3C000000001B
:1037E0001CB5002012A110230822CDE900100146CB
:1037F000FEF72CF9002012A110230822CDE90010B9
:103800001946FEF723F9002010A110230822CDE964
:1038100000102021FEF71AF9012010A11023082220
:10382000CDE9001030210020FEF710F91CBD00008A
:10383000202053656C656374204D656E75202000F3
:103840005B66756E315D2052544300005B66756E99
:10385000325D204453313842323000005B66756E71
:10386000335D2057494649001CB500200DA11023A7
:103870000822CDE900100146FEF7E8F801200DA16D
:1038800010230822CDE9001019460020FEF7DEF8CB
:1038900000200CA110230822CDE900102021FEF702
:1038A000D5F81CBD20202057494649204D656E752E
:1038B000202020005B315D20536F667441505F4DC6
:1038C0006F6465005B325D205354415F4D6F6465EA
:1038D000000000001CB500200DA110230822CDE936
:1038E00000100146FEF7B2F800200DA110230822B7
:1038F000CDE900101946FEF7A9F801200CA110230C
:103900000822CDE9001020210020FEF79FF81CBD01
:1039100020202057494649204D656E752020200003
:103920005B315D20536F667441505F4D6F6465007D
:103930005B325D205354415F4D6F646500000000B1
:1039400094B0FDF79DFEFCF763FFFDF71BF8FDF754
:10395000F9FDFEF7DDF8FEF74FFA00200090019028
:1039600003460122114602904FF4FA60FEF7DAFB9B
:103970004FF4E1313348FEF7C3FE4FF4E1313248F2
:10398000FEF7BEFE44F620624FF4E1514806FEF712
:10399000C1FD42F2107248212C48FEF7BBFD42F2F5
:1039A000107248212A48FEF7B5FD01202949086018
:1039B000FFF7D2FB00202849C1F8980141E0FEF74B
:1039C00057FC2648007880B1254926A0FEF746FF1F
:1039D0002348FEF7B5FA0020204908702549086001
:1039E0004FF480611E48FCF7A6FB234800780028AE
:1039F00027D0224922A0FEF731FF2048FDF70AFD1B
:103A000023480078B8B107AA22A11C48FEF756FE49
:103A100004AA22A11948FEF751FE01AA21A11748C4
:103A2000FEF74CFE01AB04AA07A920A0FEF716FF83
:103A300000201749087000200F49087025490860C8
:103A400000BFBCE7003801400048004000040040CF
:103A5000000800409801214200002142040000209B
:103A6000B80200205553415254315F52583A2573E1
:103A70000A000000080000200C000020B80600200A
:103A80005553415254335F52583A25730A0000008F
:103A9000A90000207465787400000000636F6465FD
:103AA0000000000074656D7000000000746578749B
:103AB0003D222573222C636F64653D222573222CE1
:103AC00074656D70657261747572653D222573222F
:103AD0000A00000010000020B207010100000000F1
:103AE000001F1C1F1E1F1E1F1F1E1F1E1F00000069
:103AF00000000000000000000000000000000000C6
:103B00000080018001C003C003E007E007E00FF080
:103B100007C01FF803803FFC01007FFE0000FE7F0E
:103B200000FFFFFFFFFFFFFFFFFFFFFFFFFFFFFFA4
:103B3000FFFFFFFFFF7EFC3F7EFEFE7F3FFC7FFE20
:103B40003FF83FFC1FF01FF80FF00FF00FE007E009
:103B500007C003C0038001800100000000000000D6
:103B60000000000000000000000000000000E00372
:103B70000000E00F0000E01F0000E03F0000E0FF59
:103B80000080E1FF01C0E3FF03E0E7FB07E0EFF3A4
:103B900007C0FFFB0380FFFF0100FFFF0000FE7F67
:103BA0000000FC3F0000F81F0000F00F0000F00FC5
:103BB0000000F81F0000FC3F0000FE7F0000FFFF38
:103BC0000080FFFF01C0FFFB03E0EFF307E0E7FB2E
:103BD00007C0E3FF0380E1FF0100E0FF0000E03FDA
:103BE0000000E01F0000E0070000E003000000000C
:103BF000000080C0E0E0C0800000FFFFFFFFFF7E0C
:103C0000FEFCF8F0F0E0C0800000000000000000C2
:103C100000000103070F1F3F7FFEFFFFFFFFFFFCB8
:103C2000FE7F3F1F0F07030100000000000000009F
:103C3000000080C0E0F0F8FCFE7FFFFFFFFFFF3FC9
:103C40007FFEFCF8F0E0C0800000000000000000F3
:103C500000000103070703010000FFFFFFFFFF7ED5
:103C60003F3F1F0F0F07030100000000000000008E
:103C7000BE2A2A2AEA2A2A2A3E00000000004442DC
:103C8000494949497F49494949414000000004FFE9
:103C9000242424FF0400FE222222FE000088482F54
:103CA000090919AF48300F0242827F00000000F07E
:103CB000101010F0F0000080C060180E0C30E0C052
:103CC00080800000000000FF404040FFFF12119084
:103CD000919191FF9191919190110100000000014B
:103CE000000000010000007F101010101010107F65
:103CF0003F000000000000F0F0101010F010000075
:103D0000F8080808C8480808FC080000000000FF80
:103D1000FF404040FF800000FF0000F07F000000F7
:103D2000FF000000000000030100000040402020D0
:103D300010080603020204040838700000000000A6
:103D40000000000000000000000000000000000073
:103D5000F800000000000000330000000000100C1C
:103D600002100C020000000000000000000040C033
:103D70007840C0780000043F04043F0400007088CD
:103D800088FC08300000182020FF211E00F008F0F9
:103D9000806018000000310C031E211E0000F00896
:103DA00088700000001E21232C1927211000120EFC
:103DB0000000000000000000000000000000000003
:103DC000E018040200000000071820400000020470
:103DD00018E000000000402018070000004040806C
:103DE000F0804040000202010F01020200000000CA
:103DF00000E0000000000101010F010101000000CE
:103E000000000000000090700000000000000000B2
:103E1000000000000000010101010101000000009C
:103E20000000000000003030000000000000000032
:103E300000C0380400006018070000000000E01017
:103E4000080810E000000F102020100F00000010E4
:103E500010F8000000000020203F20200000700823
:103E6000080808F000003028242221300000300823
:103E700008088870000018202121221C0000008002
:103E80004030F8000000060524243F242400F88870
:103E900088880808000019202020110E0000E0107A
:103EA0008888900000000F112020201F00001808B3
:103EB00008886818000000003E01000000007088BB
:103EC0000808887000001C222121221C0000F00834
:103ED000080810E0000001122222110F000000006B
:103EE000C0C00000000000003030000000000000F2
:103EF0008000000000000000E000000000000080E2
:103F0000402010080000010204081020000040407A
:103F1000404040400000020202020202000008107D
:103F200020408000000020100804020100007048BA
:103F300008088870000000003037000000C030C85A
:103F400028E810E000071827282F2817000000C0D5
:103F500038E0000000203C23020227382008F888BF
:103F60008888700000203F202020110E00C03008FB
:103F70000808083800071820202010080008F80852
:103F8000080810E000203F202020100F0008F888CB
:103F900088E8081000203F20202320180008F88817
:103FA00088E8081000203F200003000000C030080F
:103FB000080838000007182020221E020008F80810
:103FC000000008F808203F210101213F20000808D7
:103FD000F8080800000020203F2020000000000812
:103FE00008F8080800C08080807F00000008F8887A
:103FF000C028180800203F20012638200008F808B3
:104000000000000000203F20202020300008F8F8A9
:1040100000F8F80800203F013E013F200008F8307A
:10402000C00008F808203F200007183F00E01008F3
:10403000080810E0000F10202020100F0008F808DA
:10404000080808F000203F210101010000E01008ED
:10405000080810E0000F10282830504F0008F8889A
:104060008888887000203F2000030C302000708872
:1040700008080838000038202121221C00180808F0
:10408000F8080818000000203F2000000008F80889
:10409000000008F808001F202020201F0008788852
:1040A0000000C83808000007380E01000008F800BA
:1040B000F800F8080000033E013E030000081868FD
:1040C000808068180820302C03032C30200838C862
:1040D00000C83808000000203F2000000010080839
:1040E00008C83808002038262120201800000000C9
:1040F000FE020202000000007F4040400000043841
:10410000C000000000000000010638C000000202EC
:1041100002FE000000004040407F0000000000045C
:104120000202040000000000000000000000000087
:10413000000000000080808080808080800002027B
:1041400004000000000000000000000000000080EB
:10415000808000000000192424123F200010F0008D
:104160008080000000003F112020110E00000000A0
:104170008080800000000E112020201100000080AF
:10418000808090F000001F202020103F2000008041
:104190008080800000001F242424241700008080D9
:1041A000E0909020000020203F20200000000080B0
:1041B0008080808000006B94949493600010F000E5
:1041C0008080800000203F210000203F2000809858
:1041D00098000000000020203F2020000000000088
:1041E000809898000000C08080807F000010F00060
:1041F0000080808000203F2406293020000010101D
:10420000F8000000000020203F2020000080808077
:104210008080808000203F20003F20003F80800081
:104220008080800000203F210000203F200000808F
:104230008080800000001F202020201F0080800040
:10424000808000000080FF912020110E00000000FF
:104250008080008000000E11202091FF80808080EF
:10426000008080800020203F21200001000000808D
:104270008080808000003324242424190000808062
:10428000E0808000000000001F20201000808000DF
:104290000000808000001F202020103F20808080B0
:1042A000008080800000030C300C03000080800040
:1042B0008080008080010E300C073806010080806D
:1042C00080008080000020310E2E31200080808010
:1042D00000008080800081867818060100008080C0
:1042E00080808080000021302C22213000000000DE
:1042F0000000FC020200000000013E4040000000FF
:1043000000FF00000000000000FF0000000202FCAF
:10431000000000000040403E0100000000000201DB
:104320000202040200000000000000000000000083
:104330000000000000002F00000000070007000040
:10434000147F147F1400242A7F2A12006264081349
:104350002300364955225000000503000000001CD0
:10436000224100000041221C000014083E081400F5
:1043700008083E0808000000A060000008080808BF
:1043800008000060600000002010080402003E5198
:1043900049453E0000427F400000426151494600CD
:1043A0002141454B31001814127F10002745454527
:1043B00039003C4A4949300001710905030036497A
:1043C00049493600064949291E00003636000000DA
:1043D0000056360000000814224100001414141482
:1043E000140000412214080002015109060032495C
:1043F00059513E007C1211127C007F494949360018
:104400003E41414122007F4141221C007F494949F0
:1044100041007F09090901003E4149497A007F08AE
:1044200008087F0000417F4100002040413F01001B
:104430007F08142241007F40404040007F020C0270
:104440007F007F0408107F003E4141413E007F090C
:10445000090906003E4151215E007F0919294600E5
:1044600046494949310001017F0101003F40404078
:104470003F001F2040201F003F4038403F00631492
:10448000081463000708700807006151494543009C
:10449000007F41410000552A552A55000041417FC7
:1044A00000000402010204004040404040000001BE
:1044B000020400002054545478007F4844443800DB
:1044C000384444442000384444487F00385454540D
:1044D0001800087E0901020018A4A4A47C007F082B
:1044E0000404780000447D4000004080847D00008A
:1044F0007F102844000000417F4000007C04180425
:1045000078007C0804047800384444443800FC24D3
:104510002424180018242418FC007C080404080033
:10452000485454542000043F444020003C40402064
:104530007C001C2040201C003C4030403C004428B3
:10454000102844001CA0A0A07C004464544C4414D7
:104550001414141414000000000000000000F018EF
:104560000C06027E46404040C08000000000000073
:104570000000000000000070D8880C04040603034B
:104580000202020202020202020302020202C6E464
:10459000BC80000000FC860301010101010302024E
:1045A00002020202020202020202020301010100EF
:1045B0000001038EF80001030604040C0808080833
:1045C000080808080808080808080C04040404047B
:1045D00006020301000000000070F0F0E0C080005F
:1045E000008080BFBFBFBF8080000080C0E0F0F0CF
:1045F0007000000000C0C0C0C0C0C001F3FFFFFFDA
:10460000FFFFFFFFFFFFFFFFFFFFFFFFFFF301C003
:10461000C0C0C0C0C003030303030380CFFFFFFF7C
:10462000FFFFFFFFFFFFFFFFFFFFFFFFFFCF800345
:104630000303030303000000000E0F0F0703010034
:10464000000101FDFDFDFD010100000103070F0F49
:104650000E00000000000000000000000000F0FC60
:10466000FE1F07878787870FFEFEF878787830006F
:104670000000000000000000000000000000FFFF3C
:10468000FF0000FFFFFFFF00FFFFFF77777763006A
:104690000000000000000000000000E0FCFE3F0FF2
:1046A000C3F0F8FFFFFFFFF0E3071FFFFCF000007F
:1046B0000000000000000000000000010F1F3F7814
:1046C000F1F3E7E7E7E7E7E7F1787E3F1F07000050
:1046D000000000000000008080C0E0E0E0F0F0F0AA
:1046E000F8F8F8F8F8F8F8F8F8F8F0F0F0E0E0E0AA
:1046F000C0808000003E3F3F3F3F9FCFE7E7F3F39E
:10470000F9F9F9F9F9F9F9F9F9F9F3F3E7E7CF9FCD
:104710003F3F3F3F3E00000000070F0F0F0F070312
:10472000E3F1F9F9F8F8F9F9F1E303070F0F0F0FC7
:104730000700000000000000000000000000000072
:10474000070F1F1F1F1F1F1F0F0700000000000083
:104750000000000000F0FCFEFEFF7F3F9FDFCFEF78
:10476000E7E6F0F0F0F0F0F0E6E7EFCFDF9F3F7F15
:10477000FFFEFEFCF0070707F1FCFEFFFFFFFFFF57
:10478000FFFFFFFF0303FFFFFFFFFFFFFFFFFFFE32
:10479000FCF10707070000007FFFFFFFFFFFFFFF9F
:1047A000FFFFFFFFFCF8F9F9F9F9FDFFFFFFFFFF3D
:1047B000FF7F00000000000038FFFFFFFFFFFF7FCA
:1047C0003F3F7F7F7F7F7F7F3F3F7FFFFFFFFFFF79
:1047D000FF38000000000000736231323334353698
:1047E00000000000656C64656E617373000000007A
:1047F0001048000800000020B8020000BA070008B6
:10480000F4480008B802002000100000B428000896
:1048100001211A0101311361341508010302320428
:1048200013053515080201033205139D36150803DB
:104830000201320613E1372E0804040401241A8D04
:10484000242D05050502241A351836060707030826
:10485000136938370807060603091AD50C19012A07
:10486000061813A9312E0809090907181309332955
:10487000135113E4471B08D8041982301170692EB4
:1048800073656E6976657273652E636F6D1250F88D
:104890000D4745542068747470733A2F2F22183FC7
:1048A0002F76332F776561746865722F6E6F772E60
:1048B0006A736F6E3F6B65793D53664D796E584FE5
:1048C00048435570704F50654C71266C6F6361742E
:1048D000696F6E3D6E616E6368616E67266C050080
:1048E00011FF756167653D656E26756E69743D6380
:0448F0000D0A018B21
:04000005080000ED02
:00000001FF
